:020000040800F2
:10000000F00F002055020008272B000843290008A4
:10001000252B0008C31600082D3000080000000042
:10002000000000000000000000000000472B000856
:100030008117000800000000292B0008492B000848
:100040006F0200086F0200086F0200086F020008CC
:100050006F0200086F0200086F0200086F020008BC
:100060006F0200086F0200086F0200086F020008AC
:100070006F0200086F0200086F0200086F0200089C
:10008000C5160008D11600086F0200086F020008AC
:100090006F0200086F0200086F0200086F0200087C
:1000A0006F0200086F0200086F0200086F0200086C
:1000B0006F0200086F0200086F0200086F0200085C
:1000C0006F0200086F0200086F0200086F0200084C
:1000D0006F0200086F020008213000086F0200085C
:1000E0006F0200086F0200086F0200086F0200082C
:1000F0006F0200086F0200086F0200086F0200081C
:100100006F0200086F0200086F0200086F0200080B
:100110006F0200086F0200086F0200086F020008FB
:100120006F0200086F0200086F0200086F020008EB
:100130006F0200086F0200086F0200086F020008DB
:100140006F0200086F0200086F0200086F020008CB
:100150006F0200086F0200086F0200086F020008BB
:100160006F0200086F0200086F0200086F020008AB
:100170006F0200086F0200086F0200080000000014
:100180006F0200086F02000800F002F800F052F859
:100190000AA090E8000C82448344AAF10107DA45E2
:1001A00001D100F047F8AFF2090EBAE80F0013F0E2
:1001B000010F18BFFB1A43F00103184768530000F2
:1001C00088530000103A24BF78C878C1FAD8520783
:1001D00024BF30C830C144BF04680C6070470000C1
:1001E0000023002400250026103A28BF78C1FBD840
:1001F000520728BF30C148BF0B607047662905F021
:100200007480642900F0D280002070471FB505F08B
:1002100062F800F0BFFC04000020002104F038FA6E
:10022000401C60600020002104F01CFAE0601FBD4B
:1002300010B510BD00F0FAFD1146FFF7E7FF03F01F
:100240002FFF00F026FE03B4FFF7F2FF03BC00F01F
:1002500069FE00000948804709480047FEE7FEE7BD
:10026000FEE7FEE7FEE7FEE7FEE7FEE7FEE7FEE766
:1002700004480549054A064B70470000D52B000885
:1002800089010008F0090020F00F0020F00B002089
:10029000F00B002053EA020C00F069802DE9F04BCE
:1002A0004FF00006002B1FBFB3FA83F503FA05F4E5
:1002B00024FA05F65E4012BF1643B2FA82F502FA3E
:1002C00005F4C5F120051EBF22FA05FC44EA0C0422
:1002D000203556EA044C4FEA144418BF641C4FF012
:1002E00000084FF00009904271EB030C39D300294C
:1002F00019BFB1FA81F701FA07F6B0FA80F700FAF0
:1003000007F6C7F120071EBF20FA07FC46EA0C06D5
:100310002037B6FBF4FCA7EB0507103F07F01F0BD7
:10032000CBF120060CFA0BFB2CFA06F644BFB346C1
:100330000026202FA4BF5E464FF0000B5BEA060CA0
:1003400008BF4FF0010B19EB0B09ABFB027C48EB2C
:100350000608C01B06FB02CC0BFB03CC71EB0C01A7
:10036000C1E70B46024641464846BDE8F08B13B54F
:100370004FF000004FF00001AFF30080BDE81C40DB
:10038000704700000FB41CB5074B06AA7B446946B2
:100390000090059800F0A1FB0020694600F0B0FB3A
:1003A0001CBC5DF814FB0000710700002DE9F04152
:1003B0000646002410687529314616A510D0AFF303
:1003C0000080002802DA404213A507E031688A075E
:1003D00001D512A502E0490704D511A5012401E0C9
:1003E000AFF3008000210A2206F1240709E0B0FBE8
:1003F000F2FCB0FBF2F302FB1C00303078541846DC
:10040000491C0028F3D123462A463046BDE8F04176
:1004100000F0F5B8000000002D0000002B000000E7
:10042000200000002DE9F0474FF0000A89460446FD
:10043000C0F820A02046E1688847002876D025280B
:1004400006D0D4E901219047206A401C2062F1E7E0
:10045000E168204600258847C4F81CA0064600270E
:10046000C4F818A02A2E09D0304603F001FD38B395
:1004700004EB8708303EC8F8186019E059F8041BEF
:10048000204604EB87029161E1688847012F064608
:1004900018D1E069002820DA25F020051DE0D8F801
:1004A000180000EB800006EB40003038C8F8180058
:1004B0002046E1688847064603F0DAFC0028EED1C2
:1004C000012F0AD02E2E08D12046E16888477F1CD4
:1004D0000646022F45F02005C4DBA069002803DA98
:1004E000404245F00105A061E80701D025F0100564
:1004F000B6B1A6F14100192802D8203645F40065AE
:100500004A463146204625604D46FFF777FE58B1F2
:10051000012806D0ED1D25F0070000F1080989E744
:1005200004E005F1040985E730468AE7206ABDE862
:10053000F08770B5064600F053F80468054630466B
:100540000A22002100F0E1FA2C6070BD10B5431CB6
:1005500002E010F8011B71B18107FAD14FF00132AE
:1005600002C88C1A8C4314EAC211F9D0C01A0A06C8
:1005700003D0C01E10BDC01A10BD0A0401D0801ED9
:1005800010BD0902FCD0401E10BD4FF0000200B5A6
:10059000134694469646203922BFA0E80C50A0E8A6
:1005A0000C50B1F12001BFF4F7AF090728BFA0E854
:1005B0000C5048BF0CC05DF804EB890028BF40F820
:1005C000042B08BF704748BF20F8022B11F0804F62
:1005D00018BF00F8012B7047704770477047000044
:1005E000004870479009002010B5FFF7F9FF006838
:1005F00010BD10B50446FFF7F3FF046010BD2DE9F0
:10060000F0470D4699469246044600F124080168D9
:10061000880604D5E06921F01001216000E0012086
:10062000A84201DD471B00E00027A1697A1902EB0F
:100630000900081AA0612078C00602D42046AFF352
:100640000080002608E0D4E901211AF8060090474E
:10065000206A401C761C20624E45F4DB2078C006E0
:100660000AD52046AFF3008006E0D4E9012130200E
:100670009047206A401C2062381EA7F10107F4DC75
:1006800007E0D4E9012118F805009047206A401CD2
:100690002062281EA5F10105F3DC2046AFF300809F
:1006A0002078000602D50220BDE8F0870120FBE794
:1006B00070472DE9FF4F0C461E464FF0FF378BB0B9
:1006C000D2E90001DDF860800A908A46C1F30A553C
:1006D00005B93D46002108464FF00000BAF1000F71
:1006E00000F4400005DA00EB80004FF4400101EA1D
:1006F00050004FEA9059B9F1010F00DDB9460A9850
:1007000050EA4A000ED044F61050A5F2FF3545439A
:100710002F14B8F1000F1ED07542291E1EDDC9F13D
:1007200000021CE0B8F1010F4FF0000001D03021B1
:1007300003E0F24305E02154401CB042FBDB3046AD
:100740000022002121540B99C1F80880C1E9002042
:100750000FB0BDE8F08FBD1B6D1CDEE74A4600DA26
:10076000694206A800F0F0FA06AB93E8070003AB75
:1007700083E8070050460A9900F0DBFB8DE807008C
:10078000A0F500501F3800900398002D0ADD42F2BA
:100790001F014A460844002303A90390684600F05D
:1007A00044FE09E0A0F500504A461F38002303A983
:1007B0000390684600F04EFE8DE807000004000C30
:1007C00003D04FF0FF30410800E01046B8F1000FB1
:1007D00003D00022009215461EE0751E05D400F0DD
:1007E000DDF9303262556D1EF9D5B346012208435A
:1007F00002D000227F1C04E02078302801D10022A2
:100800007F1E002A099784D01DE0112D07DA00F021
:10081000C5F9303262556D1C50EA0102F5D108432A
:1008200002D00098C8B10EE00021681E05E0235CEC
:10083000625C63542254401E491C8142F7DBAB4684
:10084000A81B401E0990002004F80B000B98099A81
:10085000C0F80880C0E9002B7AE711264FF00008A5
:1008600057E72DE9F04F88460446D21D22F00701D4
:1008700091B0D1E90001CDE90A0102F0D8FB0246AE
:100880000B98C00F01D02D2007E02068810701D50B
:100890002B2002E0202101EAC000032A099001D0A8
:1008A000072A05DB03464146204600F0BDF90BE16F
:1008B0002078800601D5E06900E00620B8F1650FD8
:1008C000814606D0B8F1660F18D0B8F1670F70D125
:1008D00031E00020B9F1110F009001DB112301E09C
:1008E00009F101030AAA01A90CA8FFF7E2FEDDE95C
:1008F0000C70002609F10105834647E001204B46B4
:1009000000904FF000470AAA01A90CA8FFF7D1FEFA
:10091000DDE90DB00C995D46002610B909F1010022
:100920000D18B9EB050003D4C0F1FF3609F101053C
:10093000A5EB09002BE0B9F1010F01DA4FF0010935
:100940000020B9F1110F0090484601DD112300E0AD
:1009500003460AAA01A90CA8FFF7ABFEDDE90C705B
:100960004D4600268346207800070AD4AB4500DABE
:100970005D4601A8012D04DD411911F8011C302943
:1009800007D04F4502DA17F1040F04DA012082463E
:100990000FE06D1EEEE7002F02DCED1B3E4403E08E
:1009A000781CA84200DD7D1CB81B00F1010A4FF045
:1009B00000472078000703D4AA4501DB4FF0FF3A37
:1009C0000021B7F1004F0DF143088DF8431024D0FA
:1009D00002202B23002F01DA7F422D230A21021E41
:1009E000A0F1010000DC5FB197FBF1FC97FBF1F295
:1009F00001FB1C7C17460CF1300C08F801CDEEE72A
:100A0000A8F1010003702188090501D5452100E006
:100A10006521A0F1010800F8011C09980FA9A1EBBC
:100A20000807FF1D00B10120411901EBEA70A1691F
:100A30003844081A401EA0612078C00602D420461F
:100A4000AFF30080099828B1D4E901219047206ACA
:100A5000401C20622078C00622D52046AFF30080DB
:100A60001EE0002E04DBB34502DD01A8805D00E03E
:100A70003020D4E901219047206A401C2062761C76
:100A8000AAF101005FEA000A0AD100F083F8C06809
:100A90000168405CD4E901219047206A401C206233
:100AA000281EA5F10105DCDC07E0D4E9012118F8D6
:100AB000010B9047206A401C2062381EA7F10107F5
:100AC000F3DC2046AFF30080032011B041E60000C4
:100AD00001694A1C02610878704700B58FB0CDE902
:100AE00001310021059105497944CDE903101146F2
:100AF0006846FFF797FC0FB000BD0000E5FFFFFF61
:100B00000A6802F8010B0A6070472DE9F047914628
:100B10000F4680460446002614F8015B2DB100F014
:100B200031F80068405DC007F6D12B2D02D02D2D85
:100B300018D0641E4A463946204600F0B5F827B161
:100B40003968A14201D1C7F800804FF00204710555
:100B50000BD54042002803DDFFF742FD0460A007EB
:100B6000BDE8F08746F48066E4E70028F8DAFFF78E
:100B700037FD04606FF00040F2E700000048704766
:100B80009009002010B500F005F8001D10BD00BF51
:100B9000013B000000487047B009002030B5B0F1BB
:100BA0000A024FEA900E71F100034EEA817EB0EB2B
:100BB0000E0061EB91014FEA101E4EEA017E10EB30
:100BC0000E0041EB11114FEA102E4EEA016E10EBB0
:100BD0000E0041EB11214FEA104E4EEA014E10EB90
:100BE0000E0041EB1141401841F100014FEAD000E5
:100BF00040EA41704FEAD10110EB80054FEA8104D1
:100C000044EA907444EB01046D1944EB0404521B54
:100C1000A3414FF0000348BF0A3200D530BD401C4D
:100C200041F1000130BD00002DE9F0411F460446AE
:100C300003260168072A01F4006004DB08B116A549
:100C400005E016A503E008B115A500E015A521F003
:100C500010002060A069C01EA0610FB1401EA061FD
:100C60002046AFF300804FB1D4E9012138469047C8
:100C7000206A401C2062C01C206206E0206AFAE75D
:100C8000D4E9012115F8010B9047761EF8D22046D1
:100C9000AFF30080BDE8F0814E414E006E616E0002
:100CA000494E4600696E66002DE9F05F82461546A2
:100CB0008B4600270AF10104B9460078302801D09C
:100CC0009DB113E014F8010B0127782803D05828B0
:100CD00001D045B10AE00DB1102D07D1002714F85D
:100CE000010B102502E0082500E00A250026B04689
:100CF0000EE005FB080005FB06F101271FFA80F84E
:100D000001EB1046B6F5803F00D3B94614F8010B4D
:100D1000294600F0B0F80028EBDABBF1000F05D04F
:100D20000FB1641E00E05446CBF80040B9F1000F4B
:100D300006D0FFF755FC02210160C81EBDE8F09FF8
:100D400048EA0640FAE700002DE9F04781461646DA
:100D50008AB0354878440DC88DE80D003248784493
:100D6000801C03AC0DC884E80D0041F69B3008449C
:100D7000372190FBF1F290FBF1F5A5F1800501FB25
:100D800012041B3C02D56442012000E00020DFF881
:100D900098A080460027FA44AAF1BE0A0EE0E007B8
:100DA0000AD03246684607EB470101230AEB81016E
:100DB00000F050FB8DE8070064107F1C002CEED182
:100DC000194F7F44AE3F19E0E80715D007EB041038
:100DD0000DF1180A90E80E008AE80E00C068F04293
:100DE00001D1981908903246012306A903A800F002
:100DF00031FB03AB83E807006D10641C002DE3D1C9
:100E00004FF0010332466946B8F1000F03A802D043
:100E100000F00BFB01E000F01DFBC9E90001C9F87F
:100E200008200AB0BDE8F087B44700007546FFF718
:100E3000A5FEAE4605006946534620F007008546EC
:100E400018B020B5FFF714FABDE820404FF00006B7
:100E50004FF000074FF000084FF0000B21F00701A2
:100E6000AC46ACE8C009ACE8C009ACE8C009ACE8E5
:100E7000C0098D4670473A2800D2303820F0200251
:100E8000412A01D3A2F13700884201D34FF0FF304D
:100E9000704710B50446AFF300802046BDE810400F
:100EA000FFF7D1B94FF0013C50F8042B51F8043B47
:100EB0009A4221D1A2EB0C03934313EACC1317D12E
:100EC00050F8042B51F8043B9A4215D1A2EB0C03C5
:100ED000934313EACC130BD150F8042B51F8043B85
:100EE0009A4209D1A2EB0C03934313EACC13DBD053
:100EF0004FF00000704700BFD01A01BAB1FA81F17B
:100F000001F0180122FA01F0CB40C1F12001DBB25F
:100F1000C0B2C01A2CFA01F3D11A914311EAC311DD
:100F2000E6D1704701491820ABBEFEE7260002005B
:100F300070475FEA400C08BF91F0000F4FEA8C2326
:100F40004FEAC12243EA51514FEA1C5018BF00F545
:100F5000F0404FEA300018BF41F000415FEA6C5C9E
:100F600000F02980BCF1FF3F08BF40F0804070478F
:100F7000130C06BF12044FF0100C4FF0000C130EB0
:100F800004BF12020CF1080C130F04BF12010CF184
:100F9000040C930F04BF92000CF1020CD30F04BF9A
:100FA00052000CF1010C11464FF00002A0F11F009D
:100FB000A0EB0C00704711F0004F08BF704731F0F4
:100FC00000413FF4D5AF0B0C06BF09044FF0100CE5
:100FD0004FF0000C0B0E04BF09020CF1080C0B0FB4
:100FE00004BF09010CF1040C8B0F04BF89000CF144
:100FF000020CCB0F04BF49000CF1010CCCF1200313
:10100000A0EB0C0022FA03F302FA0CF241EA03010E
:1010100000F10100704720F07F4C80EA030023F0CC
:101020007F47ACEB070303F57C5300F0004003F16E
:10103000FF032DE980494FEA154B09B44FEA1443E9
:1010400025EA0B4E24EA03480FF2042606EB132789
:1010500049083E785FEA320203FB0667C7F50007DE
:1010600007FB06F64FEA54374FEAD64606F102066A
:1010700007FB066CCCF1005C4FEA1C472CEA074CDE
:1010800007FB06F40CFB06F504EB15464FEA961633
:1010900034BF00204FF000404FEAD13706FB07FC79
:1010A0004FEA1C4C0CFB0BF7D21B03FB0CF761EB5C
:1010B00007010CFB0EF7B0EB074072EB17420CFB7D
:1010C00008F734BFA2EB0742B2EB074261EB1741CE
:1010D0004FEA0C444FEA910706FB07FC4FEA1C4C11
:1010E0000CFB0BF7B0EBC74072EB573203FB0CF76E
:1010F00034BFA2EBC742B2EBC74261EB57310CFBE6
:101100000EF7B0EBC70072EB57720CFB08F734BF59
:10111000A2EBC702B2EBC70261EB5771039F4FEA24
:10112000816141EA921104EBCC044FEAD1374FEAD6
:10113000826206FB07FC42EA90124FEA80604FEAA7
:101140001C4C0CFB0BF7D21B03FB0CF761EB0701EC
:101150000CFB0EF7B0EB074072EB17420CFB08F7E5
:1011600034BFA2EB0742B2EB074261EB17414FEAF3
:101170008C554FEA910704EB9C2406FB07FC4FEAD1
:101180001C4C0CFB0BF7B0EBC74072EB573203FB68
:101190000CF734BFA2EBC742B2EBC74261EB573149
:1011A0000CFB0EF7B0EBC70072EB57720CFB08F7A5
:1011B00034BFA2EBC702B2EBC70261EB577115EB6C
:1011C0004C254FEA816141EA92114FEA82624FEA6F
:1011D000D13742EA901206FB07FC44F100044FEAC3
:1011E00080604FEA1C4C0CFB0BF7D21B03FB0CF787
:1011F00061EB07010CFB0EF7B0EB074072EB1742F7
:101200000CFB08F734BFA2EB0742B2EB074261EBDD
:10121000174115EB1C154FEA813141EA92414FEA23
:10122000823242EA90424FEA80304FEA0C7644F133
:10123000000448EA03434EEA0B484FF0000EB2EBBD
:10124000080C71EB030724BF624639464EEB0E0EC5
:101250004FF0000B0018524149414BEB0B0BB2EB26
:10126000080C71EB03077BF1000B24BF6246394683
:101270004EEB0E0E4FF0000B0018524149414BEB64
:101280000B0BB2EB080C71EB03077BF1000B24BFD7
:10129000624639464EEB0E0E51EA020718BF46F081
:1012A000010616EB0E7655F1000254F1000103D54C
:1012B000BDE88901BDE80088BDE88901BDE80048B6
:1012C000B619524141EB0101A3F10103704780803F
:1012D0007F7E7D7C7B7A7978777676757473727190
:1012E00071706F6E6E6D6C6C6B6A6A696868676648
:1012F00066656464636362616160605F5F5E5E5DDA
:101300005D5C5C5B5B5A5A5959585857575656554D
:1013100055555454535352525251515050504F4FAF
:101320004F4E4E4D4D4D4C4C4C4B4B4B4A4A4A49FF
:101330004949484848474747474646464545454442
:101340004444444343434342424242414141002BCF
:101350009C4630D477002BD01CB54FEA370703B436
:101360004FF010004FF01001BAF1000F06D0BCF1A1
:10137000000FDCBF40F0080040F008014FF0000013
:101380000FBCBDE810400BF1010BBBF1010F08BF12
:101390005FEA170722BF12F1010211F101014FF0BC
:1013A000004143F1000300F0004043EA00007047B1
:1013B000F9D35708D0E746EA064613F1400F4FEA43
:1013C00016461FDD13F1200FDFBF16430A4600212A
:1013D00020335B42BED0C3F1200746EA064602FA3C
:1013E00007F74FEA164646EA0706C3F1200722FA36
:1013F00003F201FA07F721FA03F14FF0000342EA82
:101400000702A7E746EA020646EA06464FEA1646FC
:1014100046EA0106BCBF46EA0646360C4FF000031A
:101420004FF000024FF0000194E72DE9804C9A46FE
:10143000934670B491E8380007C831EA400C48BFC1
:1014400034EA430C03D5FFF7E6FDFFF780FFF0BC5D
:10145000BDE8008C2DE9804C9A46934670B491E823
:10146000380007C810F0804F08BF13F0804F03D139
:1014700000F005F8FFF76BFFF0BCBDE8008C20F032
:101480007F4780EA030023F07F4C07EB0C03A3F5B2
:101490007C5300F00040A3F1FE0392F0000F00F037
:1014A000B38095F0000F00F077802DE901494FEAF5
:1014B00011404FEA144621EA004800FB06FC24EAEA
:1014C000064708FB06F607FB08F800FB07F718EBD2
:1014D00006484CEB164C4FEA124B18EB07484FEA04
:1014E00015464CEB174022EA0B4E0BFB06FC25EA97
:1014F00006470EFB06F607FB0EFE0BFB07F71EEB7F
:10150000064E4CEB164C4FF000061EEB074E4CEB14
:10151000174B18EB0B0840F1000018EB0E0B58EBC3
:10152000000840F100008F1A4FF000013CBFC94392
:10153000661B14BFB5EB040C00213CBFC943F61B6E
:101540004FEA17444EEA8E0E27EA04454FEA1C473D
:1015500004FB07622CEA074C05FB07F70CFB05F6BA
:1015600004FB0CFC16EB074642EB174216EB0C464D
:1015700042EB1C421BEB060658EB0202414146EAD5
:101580009E0601D5BDE80189B619524141EB010122
:10159000A3F10103BDE801894FEA14454FEA114761
:1015A00024EA054621EA074C05FB07F406FB07F78A
:1015B0000CFB06F105FB0CFC11EB074144EB174457
:1015C0004FEA124711EB0C4144EB1C4422EA074C52
:1015D00005FB07F206FB07F70CFB06F605FB0CFC08
:1015E00016EB074642EB174216EB0C4642EB1C4546
:1015F0006A1854F1000148BF7047B619524141EBD7
:101600000101A3F10103704795F0000F37D04FEAB5
:1016100011424FEA144721EA024624EA074C02FB32
:1016200007F106FB07F70CFB06F402FB0CFC14EBBE
:10163000074441EB17414FEA154714EB0C4441EBCB
:101640001C4125EA074C02FB07F506FB07F70CFBDC
:1016500006F602FB0CFC16EB074645EB174516EBAE
:101660000C4645EB1C42121951F1000148BF70476E
:10167000B619524141EB0101A3F1010370474FEA52
:1016800014454FEA114724EA054621EA074C05FBB9
:1016900007F106FB07F70CFB06F24FF0000605FB0F
:1016A0000CFC12EB074241EB174112EB0C4251EBE1
:1016B0001C4148BF7047921841EB0101A3F101039F
:1016C0007047FEE7014800F0BBB80000D0080020DA
:1016D000014800F0B5B80000300900200168182367
:1016E000CAB2103AB2FBF3F2054B6FF30901032AB9
:1016F0009B5CC36500D9091D8165084670470000E1
:10170000DE53000810B5014600208B698A6A4FF04D
:10171000C07453B1B3F5005F15D072B1012A0CD07B
:10172000022A0AD0032A09D104E01AB1012A06D0FC
:10173000022A03D1C96AC90100D5012010BDC96AB6
:10174000A142FAD010BD002AF7D0012AF2D0022A15
:10175000F3D0032AF3D010BD30B50468256825F412
:1017600080252560046863608368402B036803D08C
:1017700099600068C26030BD9A600068C16030BD89
:10178000704770472DE9F0410446876D00F0DAFAA2
:10179000064694F835000025022806D080206065B2
:1017A00084F834500120BDE8F0812068016821F000
:1017B000160101602068416921F080014161206CBF
:1017C00008B9A06C20B12068016821F0080101600F
:1017D0002068016821F0010101600CE000F0B2FA1C
:1017E000801B052807D920206065032084F8350078
:1017F00084F83450D7E720680068C007EED194F829
:101800005C103F208840B860012084F8350084F8DF
:1018100034500020C7E790F83510022903D080210A
:10182000416501207047052180F835100068016886
:1018300021F00101016000207047406D70470000F9
:101840002DE9F84304464FF00009CDF800906348B5
:101850004FF41651A56D0068B0FBF1F72E6894F8AF
:101860005C10082000FA01F131420FD021680A68AB
:1018700052070BD50A6822F004020A6094F85C1043
:101880008840A860606D40F00100606594F85C10CD
:101890004FF0010808FA01F0304208D02168496988
:1018A000090604D5A860606D40F00200606594F8F8
:1018B0005C1004208840304208D0216809688907FC
:1018C00004D5A860606D40F00400606594F85C1079
:1018D00010208840304218D021680968090714D5C3
:1018E000A86020680168490304D50068000308D592
:1018F000A16C07E00168C90503D4016821F0080163
:101900000160216C09B12046884794F85C102020C2
:101910008840304231D021680968C9062DD5A860B9
:1019200094F8350005282068016806D0490347D59A
:10193000006800031DD4616C1CE021F016010160F9
:101940002068416921F080014161206C08B9A06CD8
:1019500020B12068016821F00801016094F85C1052
:101960003F208840A86084F8358084F83490216D49
:101970001FE0E16B09B120468847606D00282BD03D
:10198000606DC00714D0052084F835002068016818
:1019900021F0010101600098401C0090B84203D87A
:1019A00020680068C007F6D184F8358084F8349048
:1019B000E16C002910D001B02046BDE8F043084793
:1019C0000168C905D5D4016821F01001016084F8CF
:1019D000358084F83490CCE7BDE8F88340000020DF
:1019E0002DE9F041044600F0ADF906465CB1022055
:1019F00084F83500002584F834502068016821F00F
:101A0000010101600DE00120BDE8F08100F09AF9CC
:101A1000801B052805D920206065032084F8350047
:101A2000F2E720680068C007F0D1226811682048FA
:101A30000140D4E901031843D4E903363343184382
:101A400063691843A3691843E3691843236A184379
:101A50000843616A042903D1D4E90B1319430843ED
:101A6000106020684069666A20F0070130460E4326
:101A7000012704280CD1A06A0643E06A40B1204641
:101A8000FFF740FE20B14020606584F83570BAE76A
:101A9000206846612046FFF721FE94F85C203F2134
:101AA00091408160656584F835700020ACE70000E6
:101AB0003F8010F02DE9F0410446866D90F8340027
:101AC000002501280DD0012084F8340094F83570E9
:101AD0000020012F07D084F8340002252846BDE8F5
:101AE000F0810220FBE7022784F83570606520460C
:101AF000FFF732FE94F85C103F208840B060206809
:101B0000016841F016010160206C20B12068016875
:101B100041F0080101602068016841F001010160A5
:101B2000DCE7000070B5044600F00CF90546601CC7
:101B300002D004480078044400F004F9401BA0429D
:101B4000FAD370BD340000202DE9F84FDFF8BCA1B6
:101B50000022012503264FF00F090AF1040BAAF118
:101B6000040E00BF0B6805FA02F42340A34270D1B3
:101B70000F7907F00307012F01D0022F16D18768D4
:101B80004FEA420806FA08FC27EA0C07D1F80CC015
:101B90000CFA08FC4CEA070CC0F808C04768A743D9
:101BA0000C79C4F3001494403C4344600C79E44342
:101BB000A4070AD0C4684FEA420C06FA0CF7BC43EB
:101BC0008F6807FA0CF72743C7600C7904F0030409
:101BD000022C12D1D40800EB840CDCF8204057070B
:101BE000FF0E09FA07F824EA0804D1F8108008FA71
:101BF00007F848EA0408CCF8208004684FEA420C51
:101C000006FA0CF7BC430F7907F0030707FA0CF745
:101C1000274307604C6814F4403F70D03C4C276861
:101C200047F480472760246822F0030704F48044C7
:101C30000094384C07EB040CDCF8084897074FEA8F
:101C4000177809FA08F7BC43334FB84202D100278E
:101C500024E054E0314FB84201D101271EE0304F5B
:101C6000B84201D1022719E02E4FB84201D1032713
:101C700014E02D4FB84201D104270FE02B4FB8429A
:101C800001D105270AE02A4FB84201D1062705E015
:101C9000284FB84201D1072700E0082707FA08F7C4
:101CA0002743CCF80878DAF800405746D1F804C04A
:101CB0009C435FEACC2C00D51C433C60DBF8004021
:101CC0005F46D1F804C09C435FEA8C2C00D51C43CE
:101CD0003C60DEF800407746D1F804C09C435FEAE0
:101CE0008C3C00D51C433C60084F083F3C68D1F851
:101CF00004C09C435FEACC3C00D51C433C60521CB2
:101D0000102AFFF42FAFBDE8F88F0000083C014017
:101D1000443802400030014000000240000402400C
:101D200000080240000C0240001002400014024073
:101D300000180240001C02400AB18161704709048A
:101D4000FBE7000001488068704700003400002075
:101D50000248816802781144816070473400002095
:101D60000B4810B5016841F400710160016841F44D
:101D700080610160016841F480710160032000F01E
:101D80006FF80F2000F006F800F024F8002010BDD6
:101D9000003C024070B50D4D04464FF47A7128782E
:101DA000B1FBF0F00A490968B1FBF0F000F00AFB62
:101DB00048B9102C07D200222146501E00F030F8FE
:101DC00000206C6070BD012070BD00003400002058
:101DD000400000200A4808B5016841F480410160D4
:101DE000006800F4804000900548001F016841F041
:101DF00080510160006800F08050009008BD000034
:101E000044380240002809DB00F01F020121914004
:101E10004009800000F1E020C0F800117047000088
:101E2000F0B40E4B1B680C46C3F30223C3F1070545
:101E3000042D00D90425191D072901D2002300E033
:101E4000DB1E012606FA05F1491E214099409E40FD
:101E5000761E16403143F0BC01F001B90CED00E0F4
:101E6000064900F0070208684FF6FF03184040EAF1
:101E70000220034A10430860704700000CED00E0A8
:101E80000000FA052DE9F0470E46050065D0DFF8A1
:101E90001481D8F80000F7B200F00700B04207D272
:101EA00088F80070D8F8000000F00700B04254D164
:101EB00028683D4C810712D5400703D5206840F4BF
:101EC000E05020602878000703D5206840F4604087
:101ED00020602068A96820F0F0000843206028787E
:101EE000C0072DD0304968680839012812D002286F
:101EF00013D0032811D00968890700292DDA216839
:101F000021F0030101432160FFF71CFF814641F2EC
:101F1000883A0EE009688903EFE709688901ECE770
:101F2000FFF710FFA0EB0901514502D90320BDE8DE
:101F3000F0872068696800F00C00B0EB810FEFD1EA
:101F4000D8F80010404601F00701B14207D90770E8
:101F5000006800F00700B04201D00120E7E72878D0
:101F6000400705D52068E96820F4E0500843206068
:101F70002878000706D52068296920F4604040EAE7
:101F8000C100206000F038F82168084AC1F303114D
:101F9000515CC8400649086006480068FFF7FAFE31
:101FA0000020C4E7003C024008380240E653000825
:101FB00040000020380000200448054900680968F6
:101FC000044AC1F38221515CC840704740000020A0
:101FD00008380240F65300080448054900680968BB
:101FE000044AC1F34231515CC840704740000020B0
:101FF00008380240F6530008154810B5006810F084
:102000000C02144813D04110042A0FD0082A0ED114
:102010000F4C241F2268236802F03F025B0207D5A1
:102020002068C0F38810A0FB010106E0084610BD3F
:102030002168C1F38811A1FB00010023FEF72AF9F2
:102040002168C1F30141491C4900B0FBF1F010BD0A
:10205000083802400024F4002DE9F84F04006ED047
:102060002078DFF84C93C007A9F104054AD009F1A4
:1020700004000168C1F38101012908D00068C0F3A0
:10208000810002280AD1D9F80000400206D528684C
:10209000800337D560680028E1D033E06068B0F590
:1020A000803F10D0B0F5A02F286810D020F48030E9
:1020B0002860286820F4802028606068A8B1FFF7B5
:1020C00041FE06460DE0286840F48030F4E740F415
:1020D00080202860F7E700BFFFF734FE801B6428EC
:1020E00073D828688003F7D50CE0FFF72BFE06466F
:1020F00005E000BFFFF726FE801B6428F0D82868A3
:102100008003F7D42078DFF8AC8280074FF0000A14
:102110003ED5A748001D016811F00C0F08D00068DB
:10212000C0F3810002280BD1D9F80000400207D487
:102130002868800716D5E068012800D112E033E155
:10214000E068B8B10120C8F80000FFF7FBFD0646C3
:1021500005E000BFFFF7F6FD801B0228C0D8286805
:102160008007F7D52868216920F0F80040EAC1000F
:1021700028600DE0C8F800A0FFF7E4FD064604E083
:10218000FFF7E0FD801B02281FD828688007F7D4DE
:102190002078000722D5864F87486169703771B172
:1021A00001210160FFF7CEFD064604E0FFF7CAFDFE
:1021B000801B022809D838688007F7D50EE0C0F8E0
:1021C00000A0FFF7BFFD064605E082E0FFF7BAFD7D
:1021D000801B02287DD838688007F7D42078400714
:1021E00068D5DFF8CCB100270BF13C0BDBF8000021
:1021F000C0000BD4DBF8001041F08051CBF8001088
:10220000DBF80000012700F0805000906B4E306832
:10221000C00510D4306840F480703060FFF792FD44
:10222000009005E0FFF78EFD0099401A022850D873
:102230003068C005F6D55E4EA0686C3601280FD018
:102240000528306810D020F001003060306820F0A0
:1022500004003060A068B8B1FFF774FD00900FE093
:10226000306840F00100F4E740F004003060F7E728
:10227000FFF768FD0099411A41F28830814266D823
:1022800030688007F4D50EE0FFF75CFD009007E0B2
:10229000FFF758FD0099411A41F28830814256D823
:1022A00030688007F4D42FB1DBF8001021F08051A2
:1022B000CBF80010A069C8B33D49091D0968C1F3F6
:1022C000810102294AD00228504607D0C8F8600090
:1022D00000E03CE0FFF736FD04463BE04746C8F827
:1022E0006000FFF72FFD064605E000BFFFF72AFD5F
:1022F000801B02282BD828688001F7D4D4E9070175
:102300000843A16A2E4A490802EB0141626A41EA88
:102310008211084394F82C1040EA0161C9F80010BA
:1023200001203866FFF70EFD044606E03EE000BFE0
:10233000FFF708FD001B022809D828688001F7D59F
:1023400034E000BFFFF7FEFC001B022802D9032087
:10235000BDE8F88F28688001F4D427E00128F7D081
:10236000D9F80000E26900F4800191421CD1226A90
:1023700000F03F01914217D147F6C071626A0140F7
:10238000B1EB821F10D1A26A4FF0FF3300F440314D
:1023900003EB5202B1EB024F06D194F82C1000F07F
:1023A0007060B0EB016F01D00120D1E70020CFE7D2
:1023B0000438024000004742800E4742007000404F
:1023C0000000FFFF10B5401EB0F1807F01D3012057
:1023D00010BD4FF0E02460610F21601700F03FFE58
:1023E0000020A06107202061002010BD704770B55B
:1023F000044620680C3050E8001F21F4F07140E8DA
:102400000012002AF5D12068143050E8001F21F096
:10241000010140E80012002AF5D1206B012809D102
:1024200020680C3050E8001F21F0100140E8001235
:10243000002AF5D1206840694FF0100600064FF0E1
:10244000000515D52068143050E8001F21F08001E8
:1024500040E80012002AF5D1A06B48B10565A06BD9
:10246000FFF790F920B1A06BFFF7E7F9202824D0FF
:1024700020684069400615D52068143050E8001FD8
:1024800021F0400140E80012002AF5D1E06B48B18C
:102490000565E06BFFF776F920B1E06BFFF7CDF94A
:1024A00020280AD0E584E5856564202084F8420070
:1024B00084F841002563002070BD6664032070BD70
:1024C00070470000F8B5016804460868CA684B699F
:1024D00010F00F0F4FF0000559D003F0010602F481
:1024E0009077374365D0C10705D0D10503D5616C1E
:1024F00041F001016164410705D5D90703D0616C42
:1025000041F002016164810705D5D90703D0616CF0
:1025100041F004016164010707D502F02001314355
:1025200003D0616C41F008016164616C00293AD00C
:10253000800604D5900602D5204600F007FC2068EE
:102540004069616CC0F38010090700D460B3204675
:1025500000F0C7FB20684069400621D52068143090
:1025600050E8001F21F0400140E80012002AF5D198
:10257000E06BA8B16E490165E06BFFF74CF90028EC
:1025800011D0E06B016D01B0BDE8F0400847830653
:102590000FD593060DD52046BDE8F84000F0D6BB18
:1025A0002046FFF78DFFF8BD2046FFF789FF6564E1
:1025B000F8BD266B2023012E7DD1C6067BD5D6061D
:1025C00079D508684868009048694FF002064006CF
:1025D00041D5E16B086840680004000CE8D0A28D8A
:1025E0008242E5D9E085C869B0F5807F2DD02068AA
:1025F0000C3050E8001F21F4807140E80012002ADE
:10260000F5D12068143050E8001F21F0010140E8A6
:102610000012002AF5D12068143050E8001F21F084
:10262000400140E80012002AF5D184F842302563C9
:1026300020680C3050E8001F21F0100140E8001223
:10264000002AF5D1E06BFFF79DF86663A08DE18D60
:10265000401A81B22AE0A08DE18D401A81B2E08D4E
:102660000028A5D00029A3D022680C3252E8000F20
:1026700020F4907042E80007002FF5D12068143054
:1026800050E8002F22F0010240E80027002FF5D18A
:1026900084F84230256320680C3050E8002F22F087
:1026A000100240E80023002BF5D166632046FFF7B7
:1026B0009DFEF8BDFFE705062BD5150629D594F834
:1026C00041002128F5D1A068B0F5805F01D12069D3
:1026D000B0B1206A411C2162216800784860E08C1A
:1026E000401E0004000CE084E3D12068C16821F0A2
:1026F0008001C1602068C16841F04001C160D8E735
:10270000206A0088C0F308004860206A801C2062AC
:10271000E5E74006CDD55006CBD5CA68204622F065
:102720004002CA6084F8413000F00AF9C1E70000B5
:10273000E52B000870B5040004D094F84100002592
:1027400010B106E0012070BD84F84050204600F032
:1027500023F8242084F841002068C16821F4005146
:10276000C160204600F054FB2068016921F49041CB
:1027700001612068416921F02A0141612068C16836
:1027800041F40051C1606564202084F8410084F860
:1027900042006563002070BD2DE9F04186B0064619
:1027A00014216846FDF7F1FE2F493068884257D161
:1027B0002E480024016841F400310160006800F4F3
:1027C0000030059029481038016841F0010101608E
:1027D0000068694600F0010005900C20009002207E
:1027E000CDE9010403200390072004902048FFF75F
:1027F000ABF9214D1F484FF000672860C5E901740F
:102800004FF48068C5E9034880156C61C5E906404E
:102810002C6228466C62FFF7E3F808B1FEF7B1FFBF
:10282000F563AE631348154D1830E5E80207402004
:10283000A5E81101114845F81449AC61EC612C621E
:102840006C62FFF7CDF808B1FEF79BFFB56300227D
:1028500011462620AE63FFF7E3FA2620FFF7D2FAEF
:1028600006B0BDE8F081000000440040403802405E
:102870000000024088600240D0080020300900209B
:1028800090F84230202B01D00220704721B11AB1BC
:102890000023036300F042BB01207047704770477C
:1028A0002DE9F843044690F84100984616460D4637
:1028B000202802D00220BDE8F88385B17EB1002037
:1028C0006064212084F84100FFF73CFAA684814629
:1028D000E684A0682027B0F5805F02D003E00120E5
:1028E000E9E7206910B12E4600250EE000260CE035
:1028F0008021204600F05AFBA8B9C6B116F8010B9A
:1029000021684860E08C401EE084E08C4B464FF02C
:102910000002CDF800800028EAD14FF040012046A7
:1029200000F044FB40B184F841700320C3E735F860
:10293000020BC0F30800E3E784F841700020BAE717
:102940007047FEE72DE9F04F87B014216846FDF788
:102950001CFE6E480024016841F01001016001680E
:1029600001F010010591016841F004010160016866
:1029700001F004010591016841F0800101600168E6
:1029800001F080010591016841F0010101600168D9
:1029900001F001010591016841F002010160016847
:1029A00001F002010591016841F008010160006831
:1029B000002200F00800059008215548FFF7BCF9F7
:1029C000012211465348FFF7B7F94FF2100A0022CF
:1029D00051465148FFF7B0F9082501260095CDE989
:1029E000016469464A480394FFF7AEF80096CDE9C2
:1029F0000164694647480394FFF7A6F8009502254D
:102A0000CDE901540527CDE9034769464148FFF761
:102A10009BF84FF488100096CDE90104DFF8FCB074
:102A200069465846FFF790F810200090CDE9015410
:102A30004FF00608CDE9034869465846FFF784F889
:102A4000E0200090CDE90154CDE90347694658469E
:102A5000FFF77AF84FF00409CDE900946946304851
:102A60000294FFF771F868020090CDE90154CDE9B6
:102A7000034769462A48FFF767F8CDF800A0CDE97B
:102A80000164694624480394FFF75EF84FF4A450AC
:102A90000090CDE90154CDE9034869461D48FFF790
:102AA00053F82802CDE90004694658460294FFF71E
:102AB0004BF84FF4E0500090CDE901540A20CDE9E5
:102AC000034069465846FFF73FF82020CDE900044F
:102AD000694611480294FFF737F84FF410700090E0
:102AE0001220CDE90104CDE9034969460C48FFF7FE
:102AF0002BF84FF490100095CDE901046946044885
:102B0000FFF722F807B0BDE8F08F00003038024030
:102B10000010024000080240000C02400000024089
:102B200000040240FEE7FEE7704730B40260838095
:102B300082600D46C96B1446C1602146284630BCF0
:102B40001A46FFF79DBE7047FFF702B930B593B044
:102B500030216846FDF719FD14210CA8FDF715FD7D
:102B60001A480025016841F080510160006800F0BA
:102B7000805011901648016841F48041016000685E
:102B8000022400F480401190012003901020049052
:102B9000009406940820CDE90750322009900420C3
:102BA0000A9007200B906846FFF756FA0CA90F20F1
:102BB00081E831004FF4A0500F90E0021090002106
:102BC0000CA8FFF75FF913B030BD00004038024099
:102BD000007000400248016841F4700101607047D4
:102BE00088ED00E010B5806B0021C185C184FFF73E
:102BF00067FC10BD70B5846B2068406994F8411083
:102C0000C0F3C0100025212904D118B1E584204665
:102C100000F08EF82068406994F84210C0F38010EC
:102C2000222904D118B1E585204600F05AF8606CDD
:102C300040F0100060642046FFF742FC70BD10B504
:102C40000146806B096809684FF00002C9052ED45F
:102C5000C28501680C3151E8003F23F4807341E8DC
:102C60000034002CF5D10168143151E8003F23F005
:102C7000010341E80034002CF5D10168143151E81A
:102C8000003F23F0400341E80034002CF5D120211F
:102C900080F84210016B012909D101680C3151E81B
:102CA000003F23F0100341E80034002CF5D14263CB
:102CB000016B012902D0FFF7F1FD10BD818DFFF7F7
:102CC00095FB10BD10B5806B01214163016B01299B
:102CD00002D0FFF7E4FD10BD818D4908FFF786FBA8
:102CE00010BD01680C3151E8002F22F4907241E8C8
:102CF0000023002BF5D10168143151E8002F22F098
:102D0000010241E80023002BF5D1016B012909D113
:102D100001680C3151E8002F22F0100241E8002335
:102D2000002BF5D1202180F842100021016370476B
:102D300001680C3151E8002F22F0C00241E8002365
:102D4000002BF5D1202180F84110704708B590F88C
:102D50004210222901D0022008BD82684FF480531E
:102D60009A4201D1016921B1816A9A421BD04AB1CC
:102D70000AE00268816A5268C2F308020A80816A26
:102D8000891C08E0026972B10268526802F07F0291
:102D90000A70816A491C8162C18D491E0904090CAF
:102DA000C18503D01BE002685268F1E70168CA6878
:102DB00022F02002CA600168CA6822F48072CA60E8
:102DC00001684A6922F001024A61202180F842101C
:102DD00000214163026B012A03D0FFF75FFD002051
:102DE00008BD016301680C3151E8002F22F0100288
:102DF00041E80023002BF5D101680A68D20602D50C
:102E00000A6849680091818DFFF7F0FAE7E7000052
:102E100070B5044600680169E26821F4405111432D
:102E200001612169A068E2690843616911430843AF
:102E30002168CA6849F20C639A430243CA60206859
:102E40004169A26921F4407111434161314920680F
:102E5000884202D03049884202D1FFF7BDF801E034
:102E6000FFF7AAF8E2690023192164253226B2F59A
:102E7000004F626828D0A0FB0101930F9200FDF77C
:102E800009FA0146B0FBF5F06FF01802504301EB70
:102E9000800006EB0010B0FBF5F000F0F002B1FB93
:102EA000F5F002EB0012B1FBF5F06FF01803584398
:102EB00001EB800006EB0010B0FBF5F000F00F0016
:102EC00021681044886070BDA0FB010192185B412D
:102ED000FDF7E0F90146B0FBF5F00201B1FBF5F0BA
:102EE0006FF01803584301EB800006EBC000B0FB05
:102EF000F5F000F0F80002EB4002B1FBF5F05843AA
:102F000001EB800006EBC000B0FBF5F000F007001D
:102F1000D6E70000001001400014014038B581627E
:102F200004468285002013466064222284F84220F1
:102F3000E56B1B4AEA63E56B1A4A2A64E56B1A4A99
:102F4000EA64E26B10650A462168E06B091DFEF732
:102F5000B1FD2068016840680090206948B1206890
:102F60000C3050E8001F41F4807140E80012002A44
:102F7000F5D12068143050E8001F41F0010140E80D
:102F80000012002AF5D12068143050E8001F41F0EB
:102F9000400140E80012002AF5D1002038BD0000B1
:102FA0003F2C0008C52C0008F52B00082DE9F8433C
:102FB000984617460D460446089E24E0701C22D011
:102FC000FEF7C0FEA0EB0800B0421AD8CEB12068D0
:102FD000C168490717D5802D15D0402D13D0016841
:102FE000C94309070FD401680025406800902046B6
:102FF000FFF777FE0820606484F840500120BDE8A8
:10300000F8830320FBE72068006835EA000004D05D
:103010000020B842D2D00020F1E70120F9E70000FB
:103020000148FFF74FBA000054000020FEE703B448
:1030300001984100009850EAC12018BF04204A0DB1
:1030400018BF40F0010040F2FF72B2EB515F08BFC1
:1030500040F00200012808BF052002B070470907B0
:10306000090E002804DB00F1E02080F8001470470E
:1030700000F00F0000F1E02080F8141D7047000000
:103080002DE9F04D2DED040B2DED0E8B96B0DDE905
:103090002550279CDDF890A025F0004624F000483C
:1030A000BAF1000F14BF0121002101EB4502FC49D8
:1030B00053184A1093422AD3002814BF0123002337
:1030C00003EB44030B44F7498B4220D358EA000139
:1030D0009FEDF59B76D0DFF8D8B35D4503D1BAF10B
:1030E000000F05D188E0BAF1000F08BF002100D021
:1030F000012101EB450111F5001F08D8002814BF7C
:103100000121002101EB440111F5001F0BD99DEDB8
:10311000261B9DED240B16B0BDEC0E8B04B0BDE854
:10312000F04D00F069BE0027002DBCBFE149884585
:1031300021DAE1498845A8BF02271CDAC3451ADC19
:10314000DE4901EB2851142908DDC1F1340220FACF
:1031500002F101FA02F282420DD108E058B9C1F140
:10316000140228FA02F101FA02F2424503D101F0F9
:103170000101C1F1020756EA0A0124D1002C22DA2A
:10318000002D18BF022F01D0012F0AD00220FDF719
:1031900030FA16B0BDEC0E8B04B0BDE8F04D00F077
:1031A00013BE0220FDF725FA00F00EFE51EC100BC5
:1031B00001F084FA41EC100B16B0BDEC0E8B04B09C
:1031C000BDE8F08D18E09FEDBEAB9FEDBF8B0028F2
:1031D00071D1B848804522D105F1804010F58010AA
:1031E00008BFBAF1000F07D0B3450ADC002CA8BF16
:1031F0009DED260BE0DA0DE0B0EE490AF0EE690A2B
:10320000DAE7002C06DA9DED260B51EC100B01F0ED
:1032100055FA6FE0AE48784490ED000BCCE7D84506
:103220004DD1002C48DA2EB186423AD1BAF1000FC6
:1032300042D126E0BAF1000F13D00220FDF7D9F9F0
:1032400000F0F6FD8DED020B9DED240B8DED000BD6
:1032500010EE900A039961F31E0003909DED020B9E
:10326000AAE78DED02AB9DED240B1AEE901A10EE3D
:10327000900A8DED000B61F31E0003909DED020B93
:103280009AE78DED028B9DED240B18EE901A10EE4F
:10329000900A8DED000B61F31E0003909DED020B73
:1032A0008AE709DA9DED240B51EC190B53EC102B36
:1032B00001F0FEFA1EE020E09DED240B7CE7864243
:1032C0001BDAB4F1804F0DD0A4F10050B0F1FF50E3
:1032D00013D1002D11DB9DED240B51EC100B01F0EF
:1032E00089F907E09DED240B53EC102B51EC100BEA
:1032F00000F0C2BC41EC100B5EE79DED240B51ECDD
:10330000100B00F0C1FEBAF1000FCDE90E0142D161
:103310009FED710B46B3A6F1E040B0F17F600CD099
:103320005E4538D1002D00DAA7B3022F0CBF012073
:103330004FF0FF3001F014FCDCE7002D01DD002C24
:103340000DDA002D01DD002C1FDB002D16DA002C1C
:1033500014DB012F08BF9FED620B3FF42DAFB0EEE1
:103360004A0AF0EE6A0A27E7022F18BF002D0CD098
:10337000012F0AD1002DFFF61FAF06E0002DB8BFC8
:10338000002C08DA012F3FF417AFB0EE480AF0EE38
:10339000680A11E71BE0012000EBE57050EA070125
:1033A00015D0791EB0EE498AF0EE698A084308BF4D
:1033B0009FED4D8B4E480025804570DD4D494E48B0
:1033C000884514DDB0420DDB002C19DB2FE0012015
:1033D000FDF70FF916B0BDEC0E8B04B0BDE8F04D53
:1033E00000F016BDB34502DC002C09DC1FE086426C
:1033F00002DA002C1BDA03E05E452BDD002C16DD23
:103400000220FDF7F6F800F013FD8DED020B53ECF2
:103410001A2B51EC180B01F0F7FBCDE900010399D1
:10342000019861F31E0003909DED020BC4E602209B
:10343000FDF7DFF800F00CFD10EE901A18EE900A80
:103440008DED020B8DED008B61F31E0003909DED61
:10345000020BB1E69DED0E0B53EC192B51EC100B4A
:1034600001F0DEFD9FED260BCDE9080153EC102B9A
:103470009DED080B51EC100B01F0C6FB9FED221BDC
:1034800053EC112B01F0F4FC9DED081B53EC112BB8
:1034900001F0BAFB9FED1E1B53EC112B3CE08CE0BE
:1034A000FFFF1F00FFFF0F00000000000000F03FC3
:1034B0000000F03F0000F07F0000404301FCFFFFF0
:1034C000000000000000F07F00000000000000008D
:1034D0006E220000000000000000000000000080DC
:1034E000000000000000F0FF000000000000F0BF3E
:1034F0000000E0410000F043FFFFEF3F000000004C
:10350000000000000000D03F555555555555D53F9A
:10351000000000000000E03F01F0AAFC9DED080B58
:1035200041EC1A0B53EC102B51EC100B01F06CFB1F
:1035300053EC1A2B01F068FB41EC1A0B9FEDFE0BCC
:1035400053EC102B9DED080B51EC100B01F05CFBC4
:1035500041EC1B0B9FEDFA0B51EC1A0B53EC102BAB
:1035600001F052FB41EC1A0B9FEDF70B53EC102BC3
:103570009DED080B51EC100B01F046FB53EC1A2BA0
:1035800001F04EFD41EC1A0B51EC1B0B53EC1A2BC6
:1035900001F0D2F80690CDE906519DED060B53ECF3
:1035A0001B2B51EC100B01F03BFD53EC1A2B01F0DF
:1035B0005FFC41EC100B00F0A1B90020B6F5801FB4
:1035C0000EDA9FEDE30B53EC102B9DED0E0B51EC3F
:1035D000100B01F019FBCDE90E016FF034000E461F
:1035E00000EB2650A0F2FF37C6F31300DA4940F093
:1035F0007F6646F040568842D8BF002408DDD74990
:103600008142C8BF012403DC0024A6F580167F1C7C
:10361000D348784400EBC4000F9690ED00CB9DEDAD
:103620000E0B53EC1C2B51EC100B01F0F9FC9DED33
:103630000E0B41EC1B0B53EC1C2B51EC100B01F04F
:103640007BF841EC100B51EC190B53EC102B01F0F3
:103650002FF941EC1D0B51EC1B0B53EC1D2B01F012
:10366000D3FA41EC1A0BBF488DED10AB784410959E
:1036700090ED000B4FF0005040EA660000EB8440F4
:103680008DED080B00F5002009909DED080B53EC23
:103690001C2B51EC100B01F0C3FC9DED0E1B53ECE9
:1036A000112B01F0E5FB41EC100B53EC102B9DEDC1
:1036B000100B51EC100B01F0A7FA9DED080B41EC3B
:1036C0001C0B53EC102B9DED100B51EC100B01F06B
:1036D0009BFA53EC1B2B01F0CBFB53EC1C2B01F0A2
:1036E0009FFC53EC1D2B01F08FFA41EC1C0B53ECAB
:1036F0001A2B51EC1A0B01F087FA41EC1B0B9A487C
:103700000621B0EE4B0AF0EE6B0A784400F0E0FAC6
:10371000B0EE401AF0EE601AB0EE41DAF0EE61DA87
:1037200053EC1B2B51EC1B0B01F06EFA53EC1D2BD1
:1037300001F06AFA9DED100B41EC1B0B53EC1A2BB8
:1037400051EC100B00F0F8FF53EC1C2B01F05CFA6D
:1037500053EC1B2B00F0F0FF9DED100B41EC1B0B0D
:1037600053EC102B51EC100B01F04EFA41EC1D0BF9
:103770009FED7FEB53EC1E2B00F0DEFF53EC1B2B79
:1037800000F0DAFF0890CDE908519DED080B53ECED
:103790001E2B51EC100B01F043FC53EC1D2B01F0E0
:1037A0003FFC53EC1B2B01F063FB9DED080B41EC40
:1037B0001D0B53EC102B9DED100B51EC100B01F079
:1037C00023FA41EC1B0B53EC1A2B51EC1D0B01F0AF
:1037D0001BFA9DED080B41EC1A0B53EC102B51EC2E
:1037E0001C0B01F011FA53EC1A2B00F0A5FF41EC71
:1037F0001A0B51EC1B0B53EC1A2B00F09DFF0C9095
:10380000CDE90C519DED0C0B53EC1B2B51EC100B27
:1038100001F006FC53EC1A2B01F02AFB41EC1B0BC8
:103820009FED550B53EC102B9DED0C0B51EC100B39
:1038300001F0EAF941EC1A0B9FED510B51EC1B0B17
:1038400053EC102B01F0E0F941EC1B0B9FED4E0BFC
:1038500053EC102B9DED0C0B51EC100B01F0D4F937
:1038600053EC1B2B00F068FF41EC100B48487844E8
:1038700000EBC40090ED001B51EC100B53EC112B2E
:1038800000F05AFF41EC1B0B384601F069F9CDE915
:10389000080153EC1B2B51EC1A0B00F04DFF41ECCF
:1038A000100B3C48784400EBC40090ED00CB51EC89
:1038B000100B53EC1C2B00F03FFF9DED081B53EC4D
:1038C000112B00F039FF0690CDE906519DED080B54
:1038D00053EC102B9DED060B51EC100B01F0A0FBEF
:1038E00053EC1C2B01F09CFB53EC1A2B01F098FBC2
:1038F00053EC1B2B01F0BCFA41EC100B9DED261B89
:1039000053EC102B8DED001B00959DED260B51EC1B
:10391000100B01F079F99DED000B41EC1A0B53EC03
:10392000102B9DED260B51EC100B01F079FB9DED5A
:10393000061B53EC112B2FE0000000604715F73FEA
:10394000FE822B654715F73F44DF5DF80BAE543E12
:1039500000000000000040438E9803007AB60B0080
:10396000EA1D0000181E0000221D000000000000DB
:103970000000000000000840000000E009C7EE3F22
:10398000FD033ADC09C7EE3FF5015B14E02F3EBEB4
:10399000AE1B0000681B000001F036F953EC1A2B37
:1039A00000F0CAFE9DED060B41EC1A0B53EC102BF8
:1039B0009DED000B51EC100B01F026F9CDE90C0147
:1039C0009DED0C0B51EC1A0B53EC102B00F0B4FED8
:1039D000CDE902010C46AA498C422FDB611A08434B
:1039E00018D19DED0C0B53EC102B9DED020B51ECFF
:1039F000100B01F015FB41EC1B0B9FEDA30B51ECE1
:103A00001A0B53EC102B00F097FE53EC1B2B01F01C
:103A1000F9F92DD20220FCF7ECFD00F009FA10EEC6
:103A2000901A18EE900A8DED020B8DED008B61F36C
:103A30001E0003909DED020BFFF7BEBB944A24F0DD
:103A40000041914214D39349214408437FF4EFACE1
:103A50009DED0C0B53EC102B9DED020B51EC100B5C
:103A600001F0DEFA53EC1A2B01F0CCF97FF6DFAC53
:103A700024F000408849894A002601EB2051824207
:103A80002BDA481C4FF4801121FA00F02044844ABC
:103A9000C0F30A517A44A1F2FF3192ED000B814A42
:103AA0008DED080BCA4020EA0202C0F3130040F477
:103AB0008010C1F1140120FA01F60992002CB8BF60
:103AC00076429DED080B53EC102B9DED0C0B51EC49
:103AD000100B01F0A5FACDE90C019DED0C0B51EC9A
:103AE0001A0B53EC102B00F027FE9FED6F0B089084
:103AF000CDE9085153EC102B9DED080B51EC100B48
:103B000001F082F841EC1B0B9FED690B53EC102B7D
:103B10009DED080B51EC100B01F076F89DED0C0BB0
:103B200041EC1C0B53EC102B9DED080B51EC100BD2
:103B300001F076FA53EC1A2B01F09AF99FED5E1B17
:103B400053EC112B01F060F853EC1C2B00F0F4FD4A
:103B500041EC1A0B51EC1B0B53EC1A2B00F0ECFD53
:103B6000CDE902019DED020B53EC1B2B51EC100B28
:103B700001F056FA53EC1A2B01F07AF99DED020B85
:103B800041EC1A0B53EC102B51EC100B01F03CF8EC
:103B9000CDE908014A489DED080B0521784400F065
:103BA00097F89DED081B51EC100B53EC112B01F015
:103BB0002BF89DED021B53EC112B01F059F9CDE9C7
:103BC00006019DED020B53EC1A2B51EC100B01F08A
:103BD0001BF853EC1A2B00F0AFFD9FED3B0B41ECB3
:103BE0001A0B53EC102B9DED060B51EC100B01F052
:103BF00017FA9DED060B41EC1B0B53EC102B9DEDC2
:103C0000020B51EC100B00F0FFFF53EC1B2B00F0EC
:103C10004FFE53EC1A2B01F003FA9DED021B53ECFF
:103C2000112B01F0FDF953EC192B01F021F9CDE92D
:103C3000020101EB065001150029C8BF039015DCF5
:103C40009DED020B324651EC100B01F082FBFFF7A9
:103C5000EEF9042808BF00F0FBF832469DED020B98
:103C600051EC100B01F075FBCDE902019DED020B4B
:103C700051EC180B53EC102B00F0C6FFFFF73ABBCA
:103C80000000904000000000FE822B654715973C25
:103C900000CC904000346F3F01FCFFFF0000E03F8C
:103CA000F0190000FFFF0F0000000000432EE63F68
:103CB000396CA80C615C20BEEF39FAFE422EE63F5B
:103CC000C0180000000000000000000000000040DC
:103CD00070B504462DED028B4D1E00EBC500B0EE15
:103CE000408AF0EE608A90ED000B35F0060017D0A8
:103CF00053EC182B51EC100B00F086FF41EC100B2D
:103D00006D1E04EBC50090ED001B51EC100B53EC45
:103D1000112B00F011FD41EC100B35F00600E7D13E
:103D2000022D36D0042D1CD0062D1CBFBDEC028BFD
:103D300070BD53EC182B51EC100B00F065FF94EDA7
:103D40000A1B53EC112B00F0F7FC53EC182B00F07E
:103D50005BFF94ED081B53EC112B00F0EDFC41ECE4
:103D6000100B53EC182B51EC100B00F04DFF94EDA1
:103D7000061B53EC112B00F0DFFC53EC182B00F06A
:103D800043FF94ED040B53EC102B00F0D5FC41ECF9
:103D9000100B53EC182B51EC100B00F035FF94ED89
:103DA000021B53EC112B00F0C7FC53EC182B00F056
:103DB0002BFF94ED001B53EC112B00F0BDFCBDEC70
:103DC000028B41EC100B70BD9FED070B10B553EC4F
:103DD000102B9FED070B51EC100B00F069FD41EC2F
:103DE000100B10BD000000000000000000000000EB
:103DF000000000000000F03F10B553EC112B51EC17
:103E0000100B00F099FC41EC100B10BD00000000FD
:103E10009FED050B10B553EC102B51EC100B00F07F
:103E200047FD41EC100B10BD000000000000000039
:103E30009FED050B10B553EC102B51EC100B00F05F
:103E4000E3FE41EC100B10BD00000000000000700C
:103E50009FED050B10B553EC102B51EC100B00F03F
:103E6000D3FE41EC100B10BD00000000000000105C
:103E700030380A2801D20120704700207047000026
:103E800030B5044693B0C06A01F0B4F941EC100BB0
:103E900066A153EC102B6846FCF774FA4FF47A7560
:103EA0002B460C2263A16748FEF7FAFC2B460A2238
:103EB00069466448FEF7F4FC2B46012262A1614882
:103EC000FEF7EEFC606A01F095F941EC100B57A18A
:103ED00053EC102B03A8FCF755FA2B460A225BA1E2
:103EE0005848FEF7DDFC2B460A2203A95548FEF789
:103EF000D7FC2B46012254A15248FEF7D1FCA06901
:103F000001F078F941EC100B53A153EC102B06A8EB
:103F1000FCF738FA2B46072251A14A48FEF7C0FCAD
:103F20002B460A2206A94748FEF7BAFC2B46012277
:103F300045A14448FEF7B4FCE06901F05BF941ECAF
:103F4000100B45A153EC102B09A8FCF71BFA2B46CC
:103F5000082245A13B48FEF7A3FC2B46042209A9F1
:103F60003848FEF79DFC2B46012237A13548FEF765
:103F700097FC40A10CA86269FCF704FA3DA10DA8CA
:103F80002269FCF7FFF93BA10EA8E268FCF7FAF9F9
:103F90002B46062238A12B48FEF782FC2B46022234
:103FA0000EA92848FEF77CFC2B4602220DA92548C5
:103FB000FEF776FC2B4602220CA92248FEF770FC85
:103FC0002B46012220A11F48FEF76AFC29A10FA859
:103FD0002268FCF7D7F927A110A86268FCF7D2F98C
:103FE00024A111A8A268FCF7CDF92B46062224A132
:103FF0001448FEF755FC2B4602220FA91148FEF784
:104000004FFC2B46022210A90E48FEF749FC2B4616
:10401000022211A90B48FEF743FC2B4601220AA1FC
:104020000848FEF73DFC13B030BD0000252E346675
:10403000000000004C6F6E677469747564653A2007
:1040400000000000540000200A0000004C61746968
:10405000747564653A200000252E32660000000069
:1040600053706565643A2000436F757273653A203A
:104070000000000025640000444154453A2000003F
:1040800054494D453A20000082B0CDE9000121F0AD
:10409000004001909DED000B02B051EC100B7047F9
:1040A0002DE9F04F2DED0A8B89B0FDF759FEFEF793
:1040B0004DFDFEF747FCFE480024016841F4001165
:1040C00001600068224600F4001000902146102094
:1040D000FDF7A6FE1020FDF795FE002211461120E7
:1040E000FDF79EFE1120FDF78DFEF348F1490160BA
:1040F0004FF4E131C0E901140C21C460C0E904416E
:104100008461C461FEF716FBEB494FF400673A4641
:104110004831E948FEF7B4FB4FF001099FEDE78B0A
:104120009FEDE89B9FEDE9AAE34DDFF8A4B3E94ECC
:1041300048354FF4005A4FF47A78012251465846D8
:10414000FDF7FAFD4046FDF7EDFC0020295C24292F
:1041500011D129184A78472A0DD18A784E2A0AD1D6
:10416000CA78522A07D10A794D2A04D149794329BC
:1041700001D1C6F80090401CB842E7D3306801284E
:104180007DD143460A22D4A1CB48FEF789FB00210A
:10419000204674602A5C00F101002C2AFAD170607C
:1041A00004E000BF0DF80120401C491C2A5C2C2AA9
:1041B000F8D170606846FCF7BCF942F2107190FBD0
:1041C000F1F0B0606846FCF7B4F9642190FBF1F1BE
:1041D000642091FBF0F200FB1210C249F060B2685B
:1041E0000A6048606846FCF7A4F9642190FBF1F28C
:1041F00001FB1201BB4881607068401C7060295C43
:10420000412907D0B748046209B00120BDEC0A8BF0
:10421000BDE8F08FB34A801C0021C2F82090706086
:1042200000940194029403E00DF80120401C491C05
:104230002A5C2C2AF8D170606846FCF77AF900B243
:10424000002105901DF8010001F101012E28F9D18E
:1042500068460391FCF77AF90399401A04900DEB34
:104260000100FCF766F903900498801C00F078FCCC
:1042700041EC110BB0EE490AF0EE690A00E07DE175
:10428000FEF7FEFEB0EE40BAF0EE60BA039800F022
:1042900067FC53EC1B2B00F00BFB41EC1B0B059850
:1042A00000F05EFC53EC182B00F002FB53EC1B2BD0
:1042B00000F042FA00F00EFA8A4948627068C01CA9
:1042C0007060009401940021029403E00DF8012035
:1042D000401C491C2A5C2C2AF8D170606846FCF707
:1042E00028F900B2002105901DF8010001F101013B
:1042F0002E28F9D168460391FCF728F90399401A52
:1043000004900DEB0100FCF714F903900498801C55
:1043100000F026FCB0EE49CAF0EE69CA41EC110B80
:10432000B0EE4C0AF0EE6C0AFEF7AAFEB0EE40BA10
:10433000F0EE60BA039800F013FC53EC1B2B00F076
:10434000B7FA41EC1B0B059800F00AFCB0EE481AD6
:10435000F0EE681A53EC112B00F0AAFA53EC1B2B69
:1043600000F0EAF900F0B6F95E49C8627068401CD6
:1043700070602A5C81F83020295C00F101002C2952
:10438000FAD17060002100940194029404E000BF0F
:104390000DF80120401C491C2A5C2C2AF8D17060C1
:1043A0006846FCF7D3F8D8B36846FCF7C2F800B209
:1043B000002103901DF8010001F101012E28F9D11F
:1043C00068460591FCF7C2F80599401A04900DEB78
:1043D0000100FCF7AEF80590049800F0C1FB41EC39
:1043E000110BB0EE4C0AF0EE6C0AFEF749FEB0EE8F
:1043F00040BAF0EE60BA059800F0B2FB53EC1B2B0C
:1044000000F056FA41EC1B0B039800F0A9FB53ECAB
:104410001B2B00F091F900F05DF93249886103E04F
:10442000FFE7304880ED06AA7068401C70600021EC
:1044300000940194029403E00DF80120401C491CF3
:104440002A5C2C2AF8D170606846FCF77FF870B3BC
:104450006846FCF76EF800B2002103901DF80100D9
:1044600001F101012E28F9D168460491FCF76EF89C
:104470000499401A05900DEB0100FCF75AF80490DE
:10448000059800F06DFB41EC110BB0EE4C0AF0EE1C
:104490006C0AFEF7F5FDB0EE40BAF0EE60BA049893
:1044A00000F05EFB53EC1B2B00F002FA1CE029E04D
:1044B000303802400044004054000020000000005A
:1044C00000005940000000000000244000000000EF
:1044D000000C024000000020524D43204558495333
:1044E000540A00009C08002041EC1B0B039800F0CC
:1044F00037FB53EC1B2B00F01FF900F0EBF83049B1
:10450000C86102E02E4880ED07AA70686B46401C27
:104510007060002100940194029402E05A54401CFF
:10452000491C2A5C2C2AF9D170601846FCF701F866
:1045300042F2107190FBF1F030616846FBF7F9FF31
:10454000642190FBF1F1642091FBF0F200FB12106A
:1045500070616846FBF7EDFF642190FBF1F201FB0F
:104560001200B061F26931690A4415493261CA60CA
:104570007269C1E904200846FFF782FC6423132214
:1045800010491148FEF78CF90F494346642248311F
:104590000D48FEF785F9002251465846FDF7CCFB41
:1045A0004046FDF7BFFA306801287FF4C6AD0648E3
:1045B00039464830FBF7E9FF00F008F83460BCE505
:1045C0009C080020200000205400002010B508485E
:1045D000FDF70DFF3220FDF7A5FA054A0449BDE8B5
:1045E00010404FF400634832A1F11000FEF79DBA6D
:1045F0005400002000B52DED048B83B041EC190B65
:1046000000F042FC41EC180B18EE100A18EE901A5C
:104610008DED008B002818BF0120084320F00040DA
:10462000C0F17F6000F1E040C00F14D019EE101A05
:1046300019EE900A8DED009B002918BF0121084357
:1046400020F00040C0F17F6000F1E040C00F04BFE7
:104650000120FBF7CEFF51EC180B03B0BDEC048B2F
:1046600000BD000010B500290AD00878002807D046
:1046700005487844FCF716FC002801D0002010BD46
:104680000248784410BD0000D20E0000CA0E00009F
:1046900010B500290AD00878002807D005487844CA
:1046A000FCF700FC002801D0002010BD024878442F
:1046B00010BD0000C20E0000BA0E000081F00041E3
:1046C000704780F00040704721F00041704720F0B3
:1046D0000040704721F00042A2F16052B2F5801F05
:1046E00001F0004328BFD2F17F6C0BD95FEA001CB8
:1046F00043EAC20242EB507018BF704728BF20F057
:1047000001007047B2F5801FBCBF184670474FEAE2
:10471000410C1CF5001F02D2084600F0E1BD70B547
:1047200000F01CFB00000089FFF7F6BF4FF00040CF
:10473000A0F580007047000010B591EA030F48BF54
:1047400083F0004300F17484841A71EB030C05D2EA
:10475000121943EB0C03001B61EB0C01DFF824E1A1
:104760004FEA1154A4EB135C1EEA430F18BF9EEAF4
:10477000445F73D023EA0E03DCF1200E21EA0451DA
:1047800043F4801332D322FA0CFE10EB0E0023FA0E
:104790000CFE41EB0E01CCF1200E03FA0EFE10EBE5
:1047A0000E0051F10001B1F5801FCCF1200E32D284
:1047B00001EB045112FA0EF2BDE8104058BF7047E9
:1047C000401C38BF5FEA420218BF7047002814BF80
:1047D00020F0010041F100014FEA410313F5001FF1
:1047E00038BF7047A1F1C04100F006BB012A43EB7E
:1047F0000302ACF1200CDCF11F0E32BF4FF0000EB3
:1048000023FA0CF310EB030041EB0451B4EB115FFE
:10481000D0D0A1EB045101F5801149085FEA3000C6
:1048200001EB04510ED350F1000038BF12FA0EFE16
:1048300008D1BDE81040C9E7401C38BF5FEA42021A
:10484000CAD1C3E7BDE810404FEA410313F5001F8A
:1048500038BF7047A1F1C04100F0CEBA9EEA445F74
:1048600008D011EA5E0FBDE8104004BF01F000411E
:1048700000207047BDE8104070B500F06FFA00BF2F
:1048800064FBBE3E0000E0FF02494FF0000000F074
:104890002EBD00BF0000F87F491058BFC1F1404154
:1048A0005B1058BFC3F140438B42EFF30080704769
:1048B0002DE9C04130B4DFF8A0C23CEA111418BFA2
:1048C0003CEA131400F0EC8081EA03051CEA1114A1
:1048D00044EAD57418BF1CEA131500F0C780A4EB96
:1048E00005044FF0004545EAC12145EAC32341EAEA
:1048F000505143EA525304F17F74994204F5003455
:104900004FEAC0204FEAC22208BF904200F09C80CC
:104910004FEA13650FF24016765D4FEA134506FB2A
:1049200005F7C7F1807706FB07F74FEAD737A7FBF4
:1049300003687642C8F58038A7FB06CE38BFA8F1D9
:10494000010807FB08E64FF0000EA6FB028CE6FB11
:1049500003CEDCF1000CCEF1004E38BFAEF1010EFB
:10496000A6FB0C584FF000074FF00005E6FB0E8742
:10497000A1FB08C6A0FB07CE16EB0E0645F100050D
:10498000E1FB076515F1E04E7EBFA4F580345FEAD8
:1049900046066D4116F1800745F100054FEA1727DD
:1049A0004FEA066647EA0567A6F1DE46B6F1805F84
:1049B0004FEA15251FD9384624F0010C05EBC471C8
:1049C000BCF1FE6F01EB0C1102D8F0BCBDE8008118
:1049D00024425CBF01F5801E9EEAC47F02D4F0BC75
:1049E000BDE80081244238D4F0BCA1F1C041BDE84B
:1049F000004100F001BA4FEAD22242EA43524FEAA4
:104A0000D323A7FB02864FEAD02040EA415007FBA0
:104A100003661EEA0E0F4FEAD12105FB026658BF5E
:104A2000A6EB0056B6EB00564FEA520E4EEAC37E96
:104A300018EB0E0E56EB530EBDD518EB02085E4177
:104A40007F1C55F10005B6E74FF480154FF00007C5
:104A50004FF000064FF00008ADE7F0BC4FF000004B
:104A600001F1C04101F00041BDE8008111EA0C1FD5
:104A70000CEA131500D00CE013EA0C1F00F025809F
:104A80004FF00000F0BC81EA030101F00041BDE8F5
:104A90000081F0BCBDE8004181EA030100F0ACB93F
:104AA000F0BCBDE8004170B500F058F9097EFC3E4D
:104AB00000F007B881EA03014FF0000001F0004167
:104AC000704781EA030100F097B9F0BCBDE80041EE
:104AD0004FF0000021497047FFFDFBF9F7F5F4F2B4
:104AE000F0EEEDEBE9E8E6E4E3E1E0DEDDDBDAD889
:104AF000D7D5D4D3D1D0CFCDCCCBCAC8C7C6C5C4E7
:104B0000C2C1C0BFBEBDBCBBBAB9B8B7B6B5B4B3FD
:104B1000B2B1B0AFAEADACABAAA9A8A8A7A6A5A4E8
:104B2000A3A3A2A1A09F9F9E9D9C9C9B9A999998AC
:104B30009797969595949393929191908F8F8E8E4F
:104B40008D8C8C8B8B8A89898888878786858584DC
:104B500084838382828181800000FF070000F87FC8
:104B600010F0004248BF4042B0FA80F310FA03F15F
:104B70000AD0C3F11D0303F580634FEA415002EBF5
:104B8000035202EBD12170474FF000007047000044
:104B900051EA030C17D41CF5801F58BFBCF5801FC9
:104BA00000F10680994218BF704708BF90427047D5
:104BB00007D711F5801F58BF13F5801F19D49942EC
:104BC0007047894270471CF5801F08D5BCF5801FCF
:104BD000F7D58B4218BF704708BF824270474FF429
:104BE000001C1CEB410F38BF1CEB430F01D28B4262
:104BF000704770B500F0B2F8922449004FF00051B0
:104C00004FF08053FFF748BEDFF848C170B51CEA8B
:104C1000111E1EBF1CEA13159EEA0C0F95EA0C0F1D
:104C200000F06F8081EA030423EA4C134EEAD47E3D
:104C300021EA4C1141F4801143F48013AE44A1FBEE
:104C4000024CA0FB0365AEF17F7E361955EB0C05D7
:104C5000A1FB034C4CF10003A0FB021C16EB0C065D
:104C6000654153F10003094218BF46F0010613F4F1
:104C7000007F0BD14FEA03314FEA0530340341EA9C
:104C8000155140EA16506FF003020AE04FEAC321C3
:104C90004FEAC520F40241EA555140EA56506FF000
:104CA000020202EB2E4201EB025585EACE710AD0D8
:104CB0005FEA440C18BF24F0004450F1000041F1B9
:104CC000000120EAD47040F2FE7C624500D270BD43
:104CD000A84214BF4FF080444FF04044002E08BF5C
:104CE0000024BEF1806FA8BFA1F1C041BDE87040B3
:104CF00080F282804FF0000001F1C04101F00041DC
:104D000070479EEA0C0F0CEA131518BF95EA0C0FBA
:104D100006D04FF0000081EA030E0EF0004170BD96
:104D200000F01CF88900013E00F007B800F009B857
:104D30004FEA430C5FEA5C5C08D081EA030100F0B3
:104D40005BB84FEA410C5FEA5C5CF6D14FF00000C3
:104D5000014970470000FF070000F87F0EF1020EC6
:104D60002EF0030E5EF8046B364205D4012A43EBA5
:104D7000030515F5001F12D8012841EB010C1CF5A5
:104D8000001F0CD80ED14FEAD17C15F5001F0CEB9B
:104D90004C0C0CF1020C08BF4CEBD37C04E04FF040
:104DA000080C01E04FEAD37C0CEB4C0526FA05F623
:104DB00006F00706B6F1040C06D20EEB860CBDE831
:104DC00070404CF0010C6047DFE80CF0090B020268
:104DD0004FF000414FF00000A1F5002170BD1946D1
:104DE0001046012851EB010418BFD4F5001484BF0C
:104DF000002001F0004170BD0808A0F500114FEA45
:104E00003101704753EA010C17D41CF5801F58BFBD
:104E1000BCF5801F00F106808B4218BF704708BFA9
:104E20008242704707D713F5801F58BF11F5801FC6
:104E300019D48B4270479B4270471CF5801F08D5E0
:104E4000BCF5801FF7D5994218BF704708BF904244
:104E500070474FF4001C1CEB430F38BF1CEB410F95
:104E600001D2994270470FB40CBC03BCFFF7C1BE1E
:104E700091EA030F10B581F000413FF565AC83F076
:104E8000004300F0D5B800002DE9F04101F5801C89
:104E9000BCF5001FC0F2A9804FEA115C21EA0C5159
:104EA0000CF1FD0C41F480115FEA5C0C0CF5C07C48
:104EB00001D34000494130A4890241EA9051870260
:104EC0008E0E0A0CA45D04FB04F602FB06F6C6F186
:104ED0004046A4FB0662F60D46EA422606FB06F4AF
:104EE000A4FB01235242C3F1404338BF5B1EA6FB23
:104EF00002420024E6FB0324D20B42EA4446A6FB0E
:104F00000623A1FB02E2A3FB07E4E3FB6142644248
:104F1000C2F1404E38BFAEF1010EA6FB04234FF0A4
:104F20000002E6FB0E32A2FB03463400E2FB6264A1
:104F3000A1FB06E6A4FB07E8E4FB61687642C8F142
:104F4000405838BFA8F10108A2FB06E4A3FB08E51E
:104F5000E2FB6854A1FB05E6A7FB04E8E1FB6486DD
:104F600018F1200556F10006A809A8F11B08B1099F
:104F700008F03F08B8F10A0F40EA86601CD901EB3F
:104F80000C51BDE8F08100BFFCF5EEE8E2DDD8D3BE
:104F9000CFCBC7C3C0BDB9B6B4B1AEACA9A7A5A3AA
:104FA000A19F9D9B9A9896959392908F8D8C8B89BB
:104FB0008887868584838281A0FB006800FB01F2DC
:104FC00008EB4208B8EB872807D5341858EB0104E2
:104FD000D5D5401C51F10001D1E7341A78EB01041A
:104FE000CDD4401E71F10001C9E75FEA4C0C5FEAC5
:104FF0009C5C0DD105D34FF0000001F00041BDE8ED
:10500000F081BDE8F04170B5FFF7A8FE6DDBFFBE93
:10501000BDE8F0414FF00000004970470000F87F04
:1050200010B591EA030F48BF83F000433FF58CAB06
:10503000841A71EB030C07D212198CF0004C43EB6D
:105040000C03001B61EB0C01DFF8A4E14FEA1154E3
:10505000A4EB135C1EEA430F18BF9EEA445F00F006
:10506000B08023EA6E03524221EA0451C3EB6E037F
:1050700038BF5B1EDCF1200E25D322FA0CFE10EBAC
:105080000E0043FA0CFE41EB0E01CCF1200E03FAA8
:105090000EFE10EB0E0051F10001CCF1200E29D4D0
:1050A00012FA0EF201EB0451BDE8104058BF7047F0
:1050B000401C1CBFB2F1004F704700280CBF491CB8
:1050C00020F00100704712EB020E43EB030218BF01
:1050D0004FF0010E4EEA4202ACF1200CDCF11E0E44
:1050E00054D943FA0CFE10EB0E0051F1FF31CCF114
:1050F0001E0ED5D50EF1010E12FA0EFE404141EB07
:10510000010101EB445C5FEA5C5C10D910EBDE70DE
:1051100001EB045138BFBEF1004FBDE8104018BF8D
:10512000704700280CBF491C20F00100704730D2A6
:105130004FEAD42C11F5001124F400641BD0B1FA0D
:1051400081F20B3AA41AA41ED2F12003914030FA46
:1051500003F31943904001EBCC71002C01EB045197
:10516000BDE81040A8BF704701F1C0414FF00000FA
:1051700001F000417047B0FA80F310FA03F100D15A
:1051800010BDE41A173C4805C90AE4E701EB0451D5
:1051900010BD491001EB0451BDE810404FEA30004A
:1051A00002E04FF0000170474A0008BF0042F8D00B
:1051B000B2F5001F28BF704701F000414FF000001A
:1051C00070479EEA445F07D011EA5E0FBDE81040C9
:1051D00004BF002100207047BDE8104070B5FFF704
:1051E000BDFD00BF40DFF63E83F000411046704732
:1051F0000000E0FF43004FEAD30C4FEA3C0C434071
:105200001FBF40070CF1605113F0FE4F70471CF0B8
:10521000006F03D100200CF0004170470CF00043F8
:1052200043EA507010B540EACC0000F00EF800BF21
:10523000000000924FEA0001FFF7DEBD4FF0004191
:105240004FF00000A1F5002170470EF1020E2EF084
:10525000030E5EF8044B244204D44FEA4102B2F13B
:105260007F4F11D84FEA4003B3F17F4F0CD80ED1D6
:105270004FEAD07CB2F17F4F0CEB4C0C0CF1020CDE
:1052800008BF4CEBD17C04E04FF0080C01E04FEA82
:10529000D17C0CEB4C0324FA03F404F00704B4F1C2
:1052A000040C06D20EEB840CBDE810404CF0010C4F
:1052B0006047DFE80CF0070802024FF00040A0F55D
:1052C000800010BD0846420018BFD2F1807288BF2E
:1052D00000F0004010BD4FF04070E1EE100A704742
:1052E000FF2141EAD050C0057047FBF7BABA0CF075
:1052F0000F03092B08BF082000F059800A2B0BD0A0
:10530000082B18BF704708BF1CF0400F0AD04FF0A1
:1053100000004FF0000170471CF0400F18BF4FF025
:10532000004070471CF0100F08D020F0704300F0D0
:105330007F4242EAD3014FEA4370704700F0604079
:1053400021F07F4242EA000201F07F4040EA7270A1
:1053500070474FF0FF0C4CF4E06C1CEA11531CBF7B
:105360009CEA030C9445C2BFDA4201EB025170473C
:10537000002B0DD0BCF1000F0FD0002A01F000412E
:10538000A4BF41F0E04141F07F614FF00000704761
:1053900001F000414FF00000704750EA01334FF038
:1053A0009B0C18BF4CF0806C7FF46EAA70471CF405
:1053B000801F11D01CF4E02F03D06FEACC314900DC
:1053C00070474FF04050EFF3008222F0704242EA03
:1053D000000282F3008870474FF00000704700061B
:1053E0001016000610160000000000000000010268
:1053F000030406070809000000000102030400007E
:10540000000000000000F03F000000000000F83F36
:1054100000000000000000000000004003B8E23F70
:10542000000000000000000006D0CF43EBFD4C3E22
:10543000033333333333E33FFFAB6FDBB66DDB3F17
:105440004D268F515555D53F01411DA96074D13F5F
:1054500065DBC9934A86CD3FEF4E454A287ECA3F59
:105460003E5555555555C53F93BDBE166CC166BFDB
:105470002CDE25AF6A56113FF16BD2C541BDBBBED4
:10548000D0A4BE726937663E000000000000000034
:1054900002400000000000A00000000005400000E5
:1054A000000000C8000000000C4000000000409C0C
:1054B00000000000194000000020BCBE00000000F9
:1054C00034400000BFC91B8E00000004B54000003E
:1054D000504BCFD06607E2CF010000006C410000C6
:1054E0003E8251AADFEEA73401000000D94200003D
:1054F000DCB5A0E23A301F97FFFFFFFFB445000084
:10550000FD25A0C8E9A3C14FFFFFFFFFFF3F00003B
:105510000000008000000000FF3F0000000000804D
:105520000000000070560008000000204400000049
:10553000C4010008B456000844000020AC0F00006D
:10554000E00100081C00000043000000F8FFFFFF1E
:105550000C0000000E0000000F0000002E000000F4
:105560001001000043000000F8FFFFFF0040404032
:105570004040404040404141414141404040404026
:1055800040404040404040404040404040050202D2
:105590000202020202020202020202020220202091
:1055A00020202020202020020202020202029090ED
:1055B00090909090101010101010101010101010EB
:1055C000101010101010101002020202020288883F
:1055D000888888880808080808080808080808084B
:1055E0000808080808080808020202024000000033
:1055F00000000000000000000000000000000000AB
:10560000000000000000000000000000000000009A
:10561000000000000000000000000000000000008A
:10562000000000000000000000000000000000007A
:10563000000000000000000000000000000000006A
:10564000000000000000000000000000000000005A
:10565000000000000000000000000000000000004A
:10566000000000000000000000000000000000003A
:10567000000000000000000000000000000000002A
:10568000000000000000000000000000000000001A
:1056900048656C6C6F2066726F6D205461736B206F
:1056A000310A0000010000001000000000000000AE
:0456B0000024F400DE
:040000050800018965
:00000001FF
